{
  "contractName": "ArtAuction",
  "abi": [
    {
      "inputs": [],
      "stateMutability": "nonpayable",
      "type": "constructor"
    },
    {
      "anonymous": false,
      "inputs": [
        {
          "indexed": true,
          "internalType": "address",
          "name": "owner",
          "type": "address"
        },
        {
          "indexed": true,
          "internalType": "address",
          "name": "approved",
          "type": "address"
        },
        {
          "indexed": true,
          "internalType": "uint256",
          "name": "tokenId",
          "type": "uint256"
        }
      ],
      "name": "Approval",
      "type": "event"
    },
    {
      "anonymous": false,
      "inputs": [
        {
          "indexed": true,
          "internalType": "address",
          "name": "owner",
          "type": "address"
        },
        {
          "indexed": true,
          "internalType": "address",
          "name": "operator",
          "type": "address"
        },
        {
          "indexed": false,
          "internalType": "bool",
          "name": "approved",
          "type": "bool"
        }
      ],
      "name": "ApprovalForAll",
      "type": "event"
    },
    {
      "anonymous": false,
      "inputs": [
        {
          "indexed": false,
          "internalType": "address",
          "name": "bidder",
          "type": "address"
        },
        {
          "indexed": false,
          "internalType": "uint256",
          "name": "bid",
          "type": "uint256"
        },
        {
          "indexed": false,
          "internalType": "address",
          "name": "highestBidder",
          "type": "address"
        },
        {
          "indexed": false,
          "internalType": "uint256",
          "name": "highestBid",
          "type": "uint256"
        },
        {
          "indexed": false,
          "internalType": "uint256",
          "name": "highestBidingBid",
          "type": "uint256"
        }
      ],
      "name": "LogBid",
      "type": "event"
    },
    {
      "anonymous": false,
      "inputs": [],
      "name": "LogCanceled",
      "type": "event"
    },
    {
      "anonymous": false,
      "inputs": [
        {
          "indexed": false,
          "internalType": "address",
          "name": "withdrawer",
          "type": "address"
        },
        {
          "indexed": false,
          "internalType": "address",
          "name": "withdrawalAccount",
          "type": "address"
        },
        {
          "indexed": false,
          "internalType": "uint256",
          "name": "amount",
          "type": "uint256"
        }
      ],
      "name": "LogWithdrawal",
      "type": "event"
    },
    {
      "anonymous": false,
      "inputs": [
        {
          "indexed": true,
          "internalType": "address",
          "name": "from",
          "type": "address"
        },
        {
          "indexed": true,
          "internalType": "address",
          "name": "to",
          "type": "address"
        },
        {
          "indexed": true,
          "internalType": "uint256",
          "name": "tokenId",
          "type": "uint256"
        }
      ],
      "name": "Transfer",
      "type": "event"
    },
    {
      "inputs": [],
      "name": "_artItemIDs",
      "outputs": [
        {
          "internalType": "uint256",
          "name": "",
          "type": "uint256"
        }
      ],
      "stateMutability": "view",
      "type": "function"
    },
    {
      "inputs": [],
      "name": "_tokenIDs",
      "outputs": [
        {
          "internalType": "uint256",
          "name": "",
          "type": "uint256"
        }
      ],
      "stateMutability": "view",
      "type": "function"
    },
    {
      "inputs": [
        {
          "internalType": "address",
          "name": "to",
          "type": "address"
        },
        {
          "internalType": "uint256",
          "name": "tokenId",
          "type": "uint256"
        }
      ],
      "name": "approve",
      "outputs": [],
      "stateMutability": "nonpayable",
      "type": "function"
    },
    {
      "inputs": [
        {
          "internalType": "address",
          "name": "owner",
          "type": "address"
        }
      ],
      "name": "balanceOf",
      "outputs": [
        {
          "internalType": "uint256",
          "name": "",
          "type": "uint256"
        }
      ],
      "stateMutability": "view",
      "type": "function"
    },
    {
      "inputs": [],
      "name": "baseURI",
      "outputs": [
        {
          "internalType": "string",
          "name": "",
          "type": "string"
        }
      ],
      "stateMutability": "view",
      "type": "function"
    },
    {
      "inputs": [
        {
          "internalType": "uint256",
          "name": "",
          "type": "uint256"
        }
      ],
      "name": "bid",
      "outputs": [
        {
          "internalType": "uint256",
          "name": "highestBidingBid",
          "type": "uint256"
        },
        {
          "internalType": "address payable",
          "name": "highestBidder",
          "type": "address"
        }
      ],
      "stateMutability": "view",
      "type": "function"
    },
    {
      "inputs": [],
      "name": "canceled",
      "outputs": [
        {
          "internalType": "bool",
          "name": "",
          "type": "bool"
        }
      ],
      "stateMutability": "view",
      "type": "function"
    },
    {
      "inputs": [
        {
          "internalType": "uint256",
          "name": "",
          "type": "uint256"
        },
        {
          "internalType": "address",
          "name": "",
          "type": "address"
        }
      ],
      "name": "fundsByBidder",
      "outputs": [
        {
          "internalType": "uint256",
          "name": "",
          "type": "uint256"
        }
      ],
      "stateMutability": "view",
      "type": "function"
    },
    {
      "inputs": [
        {
          "internalType": "uint256",
          "name": "tokenId",
          "type": "uint256"
        }
      ],
      "name": "getApproved",
      "outputs": [
        {
          "internalType": "address",
          "name": "",
          "type": "address"
        }
      ],
      "stateMutability": "view",
      "type": "function"
    },
    {
      "inputs": [
        {
          "internalType": "address",
          "name": "owner",
          "type": "address"
        },
        {
          "internalType": "address",
          "name": "operator",
          "type": "address"
        }
      ],
      "name": "isApprovedForAll",
      "outputs": [
        {
          "internalType": "bool",
          "name": "",
          "type": "bool"
        }
      ],
      "stateMutability": "view",
      "type": "function"
    },
    {
      "inputs": [],
      "name": "name",
      "outputs": [
        {
          "internalType": "string",
          "name": "",
          "type": "string"
        }
      ],
      "stateMutability": "view",
      "type": "function"
    },
    {
      "inputs": [],
      "name": "owner",
      "outputs": [
        {
          "internalType": "address",
          "name": "",
          "type": "address"
        }
      ],
      "stateMutability": "view",
      "type": "function"
    },
    {
      "inputs": [
        {
          "internalType": "uint256",
          "name": "tokenId",
          "type": "uint256"
        }
      ],
      "name": "ownerOf",
      "outputs": [
        {
          "internalType": "address",
          "name": "",
          "type": "address"
        }
      ],
      "stateMutability": "view",
      "type": "function"
    },
    {
      "inputs": [
        {
          "internalType": "address",
          "name": "from",
          "type": "address"
        },
        {
          "internalType": "address",
          "name": "to",
          "type": "address"
        },
        {
          "internalType": "uint256",
          "name": "tokenId",
          "type": "uint256"
        }
      ],
      "name": "safeTransferFrom",
      "outputs": [],
      "stateMutability": "nonpayable",
      "type": "function"
    },
    {
      "inputs": [
        {
          "internalType": "address",
          "name": "from",
          "type": "address"
        },
        {
          "internalType": "address",
          "name": "to",
          "type": "address"
        },
        {
          "internalType": "uint256",
          "name": "tokenId",
          "type": "uint256"
        },
        {
          "internalType": "bytes",
          "name": "_data",
          "type": "bytes"
        }
      ],
      "name": "safeTransferFrom",
      "outputs": [],
      "stateMutability": "nonpayable",
      "type": "function"
    },
    {
      "inputs": [
        {
          "internalType": "address",
          "name": "operator",
          "type": "address"
        },
        {
          "internalType": "bool",
          "name": "approved",
          "type": "bool"
        }
      ],
      "name": "setApprovalForAll",
      "outputs": [],
      "stateMutability": "nonpayable",
      "type": "function"
    },
    {
      "inputs": [
        {
          "internalType": "bytes4",
          "name": "interfaceId",
          "type": "bytes4"
        }
      ],
      "name": "supportsInterface",
      "outputs": [
        {
          "internalType": "bool",
          "name": "",
          "type": "bool"
        }
      ],
      "stateMutability": "view",
      "type": "function"
    },
    {
      "inputs": [],
      "name": "symbol",
      "outputs": [
        {
          "internalType": "string",
          "name": "",
          "type": "string"
        }
      ],
      "stateMutability": "view",
      "type": "function"
    },
    {
      "inputs": [
        {
          "internalType": "uint256",
          "name": "index",
          "type": "uint256"
        }
      ],
      "name": "tokenByIndex",
      "outputs": [
        {
          "internalType": "uint256",
          "name": "",
          "type": "uint256"
        }
      ],
      "stateMutability": "view",
      "type": "function"
    },
    {
      "inputs": [
        {
          "internalType": "address",
          "name": "owner",
          "type": "address"
        },
        {
          "internalType": "uint256",
          "name": "index",
          "type": "uint256"
        }
      ],
      "name": "tokenOfOwnerByIndex",
      "outputs": [
        {
          "internalType": "uint256",
          "name": "",
          "type": "uint256"
        }
      ],
      "stateMutability": "view",
      "type": "function"
    },
    {
      "inputs": [
        {
          "internalType": "uint256",
          "name": "tokenId",
          "type": "uint256"
        }
      ],
      "name": "tokenURI",
      "outputs": [
        {
          "internalType": "string",
          "name": "",
          "type": "string"
        }
      ],
      "stateMutability": "view",
      "type": "function"
    },
    {
      "inputs": [],
      "name": "totalSupply",
      "outputs": [
        {
          "internalType": "uint256",
          "name": "",
          "type": "uint256"
        }
      ],
      "stateMutability": "view",
      "type": "function"
    },
    {
      "inputs": [
        {
          "internalType": "address",
          "name": "from",
          "type": "address"
        },
        {
          "internalType": "address",
          "name": "to",
          "type": "address"
        },
        {
          "internalType": "uint256",
          "name": "tokenId",
          "type": "uint256"
        }
      ],
      "name": "transferFrom",
      "outputs": [],
      "stateMutability": "nonpayable",
      "type": "function"
    },
    {
      "inputs": [
        {
          "internalType": "uint256",
          "name": "price",
          "type": "uint256"
        },
        {
          "internalType": "string",
          "name": "tokenURI",
          "type": "string"
        },
        {
          "internalType": "uint256",
          "name": "_bidincrement",
          "type": "uint256"
        }
      ],
      "name": "addArtItem",
      "outputs": [],
      "stateMutability": "nonpayable",
      "type": "function"
    },
    {
      "inputs": [
        {
          "internalType": "uint256",
          "name": "id",
          "type": "uint256"
        }
      ],
      "name": "getArtItem",
      "outputs": [
        {
          "internalType": "uint256",
          "name": "",
          "type": "uint256"
        },
        {
          "internalType": "uint256",
          "name": "",
          "type": "uint256"
        },
        {
          "internalType": "string",
          "name": "",
          "type": "string"
        },
        {
          "internalType": "uint256",
          "name": "",
          "type": "uint256"
        }
      ],
      "stateMutability": "view",
      "type": "function"
    },
    {
      "inputs": [
        {
          "internalType": "uint256",
          "name": "id",
          "type": "uint256"
        }
      ],
      "name": "cancelAuction",
      "outputs": [
        {
          "internalType": "bool",
          "name": "success",
          "type": "bool"
        }
      ],
      "stateMutability": "payable",
      "type": "function"
    },
    {
      "inputs": [
        {
          "internalType": "uint256",
          "name": "id",
          "type": "uint256"
        }
      ],
      "name": "placeBid",
      "outputs": [
        {
          "internalType": "bool",
          "name": "success",
          "type": "bool"
        }
      ],
      "stateMutability": "payable",
      "type": "function"
    },
    {
      "inputs": [
        {
          "internalType": "uint256",
          "name": "id",
          "type": "uint256"
        }
      ],
      "name": "withdraw",
      "outputs": [
        {
          "internalType": "bool",
          "name": "success",
          "type": "bool"
        }
      ],
      "stateMutability": "payable",
      "type": "function"
    }
  ],
  "bytecode": "0x60806040526000601160006101000a81548160ff0219169083151502179055506000601160016101000a81548160ff0219169083151502179055503480156200004757600080fd5b506040518060400160405280600481526020017f44415254000000000000000000000000000000000000000000000000000000008152506040518060400160405280600381526020017f4152540000000000000000000000000000000000000000000000000000000000815250620000cc6301ffc9a760e01b6200018f60201b60201c565b8160069080519060200190620000e492919062000298565b508060079080519060200190620000fd92919062000298565b50620001166380ac58cd60e01b6200018f60201b60201c565b6200012e635b5e139f60e01b6200018f60201b60201c565b6200014663780e9d6360e01b6200018f60201b60201c565b505033600a60006101000a81548173ffffffffffffffffffffffffffffffffffffffff021916908373ffffffffffffffffffffffffffffffffffffffff16021790555062000347565b63ffffffff60e01b817bffffffffffffffffffffffffffffffffffffffffffffffffffffffff191614156200022c576040517f08c379a000000000000000000000000000000000000000000000000000000000815260040180806020018281038252601c8152602001807f4552433136353a20696e76616c696420696e746572666163652069640000000081525060200191505060405180910390fd5b6001600080837bffffffffffffffffffffffffffffffffffffffffffffffffffffffff19167bffffffffffffffffffffffffffffffffffffffffffffffffffffffff1916815260200190815260200160002060006101000a81548160ff02191690831515021790555050565b828054600181600116156101000203166002900490600052602060002090601f016020900481019282601f10620002db57805160ff19168380011785556200030c565b828001600101855582156200030c579182015b828111156200030b578251825591602001919060010190620002ee565b5b5090506200031b91906200031f565b5090565b6200034491905b808211156200034057600081600090555060010162000326565b5090565b90565b61431680620003576000396000f3fe6080604052600436106101b75760003560e01c80634f6ccce7116100ec57806396b5a7551161008a578063b88d4fde11610064578063b88d4fde14610be9578063bc98f5d514610cfb578063c87b56dd14610d26578063e985e9c514610dda576101b7565b806396b5a75514610b005780639979ef4514610b46578063a22cb46514610b8c576101b7565b80636c0360eb116100c65780636c0360eb1461092457806370a08231146109b45780638da5cb5b14610a1957806395d89b4114610a70576101b7565b80634f6ccce71461077e5780636352211e146107cd5780636408f9c014610848576101b7565b806326fe3065116101595780633f9942ff116101335780633f9942ff146106275780633f9bbc4f1461065657806342842e0e14610681578063454a2ab3146106fc576101b7565b806326fe3065146105035780632e1a7d4d146105725780632f745c59146105b8576101b7565b8063095ea7b311610195578063095ea7b31461033957806318160ddd1461039457806321f004eb146103bf57806323b872dd14610488576101b7565b806301ffc9a7146101bc57806306fdde031461022e578063081812fc146102be575b600080fd5b3480156101c857600080fd5b50610214600480360360208110156101df57600080fd5b8101908080357bffffffffffffffffffffffffffffffffffffffffffffffffffffffff19169060200190929190505050610e63565b604051808215151515815260200191505060405180910390f35b34801561023a57600080fd5b50610243610eca565b6040518080602001828103825283818151815260200191508051906020019080838360005b83811015610283578082015181840152602081019050610268565b50505050905090810190601f1680156102b05780820380516001836020036101000a031916815260200191505b509250505060405180910390f35b3480156102ca57600080fd5b506102f7600480360360208110156102e157600080fd5b8101908080359060200190929190505050610f6c565b604051808273ffffffffffffffffffffffffffffffffffffffff1673ffffffffffffffffffffffffffffffffffffffff16815260200191505060405180910390f35b34801561034557600080fd5b506103926004803603604081101561035c57600080fd5b81019080803573ffffffffffffffffffffffffffffffffffffffff16906020019092919080359060200190929190505050611007565b005b3480156103a057600080fd5b506103a961114b565b6040518082815260200191505060405180910390f35b3480156103cb57600080fd5b506103f8600480360360208110156103e257600080fd5b810190808035906020019092919050505061115c565b6040518085815260200184815260200180602001838152602001828103825284818151815260200191508051906020019080838360005b8381101561044a57808201518184015260208101905061042f565b50505050905090810190601f1680156104775780820380516001836020036101000a031916815260200191505b509550505050505060405180910390f35b34801561049457600080fd5b50610501600480360360608110156104ab57600080fd5b81019080803573ffffffffffffffffffffffffffffffffffffffff169060200190929190803573ffffffffffffffffffffffffffffffffffffffff169060200190929190803590602001909291905050506113f4565b005b34801561050f57600080fd5b5061055c6004803603604081101561052657600080fd5b8101908080359060200190929190803573ffffffffffffffffffffffffffffffffffffffff16906020019092919050505061146a565b6040518082815260200191505060405180910390f35b61059e6004803603602081101561058857600080fd5b810190808035906020019092919050505061148f565b604051808215151515815260200191505060405180910390f35b3480156105c457600080fd5b50610611600480360360408110156105db57600080fd5b81019080803573ffffffffffffffffffffffffffffffffffffffff16906020019092919080359060200190929190505050611801565b6040518082815260200191505060405180910390f35b34801561063357600080fd5b5061063c61185c565b604051808215151515815260200191505060405180910390f35b34801561066257600080fd5b5061066b61186f565b6040518082815260200191505060405180910390f35b34801561068d57600080fd5b506106fa600480360360608110156106a457600080fd5b81019080803573ffffffffffffffffffffffffffffffffffffffff169060200190929190803573ffffffffffffffffffffffffffffffffffffffff16906020019092919080359060200190929190505050611875565b005b34801561070857600080fd5b506107356004803603602081101561071f57600080fd5b8101908080359060200190929190505050611895565b604051808381526020018273ffffffffffffffffffffffffffffffffffffffff1673ffffffffffffffffffffffffffffffffffffffff1681526020019250505060405180910390f35b34801561078a57600080fd5b506107b7600480360360208110156107a157600080fd5b81019080803590602001909291905050506118d9565b6040518082815260200191505060405180910390f35b3480156107d957600080fd5b50610806600480360360208110156107f057600080fd5b81019080803590602001909291905050506118fc565b604051808273ffffffffffffffffffffffffffffffffffffffff1673ffffffffffffffffffffffffffffffffffffffff16815260200191505060405180910390f35b34801561085457600080fd5b506109226004803603606081101561086b57600080fd5b81019080803590602001909291908035906020019064010000000081111561089257600080fd5b8201836020820111156108a457600080fd5b803590602001918460018302840111640100000000831117156108c657600080fd5b91908080601f016020809104026020016040519081016040528093929190818152602001838380828437600081840152601f19601f82011690508083019250505050505050919291929080359060200190929190505050611933565b005b34801561093057600080fd5b50610939611ab0565b6040518080602001828103825283818151815260200191508051906020019080838360005b8381101561097957808201518184015260208101905061095e565b50505050905090810190601f1680156109a65780820380516001836020036101000a031916815260200191505b509250505060405180910390f35b3480156109c057600080fd5b50610a03600480360360208110156109d757600080fd5b81019080803573ffffffffffffffffffffffffffffffffffffffff169060200190929190505050611b52565b6040518082815260200191505060405180910390f35b348015610a2557600080fd5b50610a2e611c27565b604051808273ffffffffffffffffffffffffffffffffffffffff1673ffffffffffffffffffffffffffffffffffffffff16815260200191505060405180910390f35b348015610a7c57600080fd5b50610a85611c4d565b6040518080602001828103825283818151815260200191508051906020019080838360005b83811015610ac5578082015181840152602081019050610aaa565b50505050905090810190601f168015610af25780820380516001836020036101000a031916815260200191505b509250505060405180910390f35b610b2c60048036036020811015610b1657600080fd5b8101908080359060200190929190505050611cef565b604051808215151515815260200191505060405180910390f35b610b7260048036036020811015610b5c57600080fd5b810190808035906020019092919050505061205c565b604051808215151515815260200191505060405180910390f35b348015610b9857600080fd5b50610be760048036036040811015610baf57600080fd5b81019080803573ffffffffffffffffffffffffffffffffffffffff1690602001909291908035151590602001909291905050506125a7565b005b348015610bf557600080fd5b50610cf960048036036080811015610c0c57600080fd5b81019080803573ffffffffffffffffffffffffffffffffffffffff169060200190929190803573ffffffffffffffffffffffffffffffffffffffff1690602001909291908035906020019092919080359060200190640100000000811115610c7357600080fd5b820183602082011115610c8557600080fd5b80359060200191846001830284011164010000000083111715610ca757600080fd5b91908080601f016020809104026020016040519081016040528093929190818152602001838380828437600081840152601f19601f82011690508083019250505050505050919291929050505061275f565b005b348015610d0757600080fd5b50610d106127d7565b6040518082815260200191505060405180910390f35b348015610d3257600080fd5b50610d5f60048036036020811015610d4957600080fd5b81019080803590602001909291905050506127dd565b6040518080602001828103825283818151815260200191508051906020019080838360005b83811015610d9f578082015181840152602081019050610d84565b50505050905090810190601f168015610dcc5780820380516001836020036101000a031916815260200191505b509250505060405180910390f35b348015610de657600080fd5b50610e4960048036036040811015610dfd57600080fd5b81019080803573ffffffffffffffffffffffffffffffffffffffff169060200190929190803573ffffffffffffffffffffffffffffffffffffffff169060200190929190505050612ac6565b604051808215151515815260200191505060405180910390f35b6000806000837bffffffffffffffffffffffffffffffffffffffffffffffffffffffff19167bffffffffffffffffffffffffffffffffffffffffffffffffffffffff1916815260200190815260200160002060009054906101000a900460ff169050919050565b606060068054600181600116156101000203166002900480601f016020809104026020016040519081016040528092919081815260200182805460018160011615610100020316600290048015610f625780601f10610f3757610100808354040283529160200191610f62565b820191906000526020600020905b815481529060010190602001808311610f4557829003601f168201915b5050505050905090565b6000610f7782612b5a565b610fcc576040517f08c379a000000000000000000000000000000000000000000000000000000000815260040180806020018281038252602c8152602001806141df602c913960400191505060405180910390fd5b6004600083815260200190815260200160002060009054906101000a900473ffffffffffffffffffffffffffffffffffffffff169050919050565b6000611012826118fc565b90508073ffffffffffffffffffffffffffffffffffffffff168373ffffffffffffffffffffffffffffffffffffffff161415611099576040517f08c379a000000000000000000000000000000000000000000000000000000000815260040180806020018281038252602181526020018061428f6021913960400191505060405180910390fd5b8073ffffffffffffffffffffffffffffffffffffffff166110b8612b77565b73ffffffffffffffffffffffffffffffffffffffff1614806110e757506110e6816110e1612b77565b612ac6565b5b61113c576040517f08c379a00000000000000000000000000000000000000000000000000000000081526004018080602001828103825260388152602001806141326038913960400191505060405180910390fd5b6111468383612b7f565b505050565b60006111576002612c38565b905090565b60008060606000600e600086815260200190815260200160002060030160009054906101000a900460ff166111f9576040517f08c379a00000000000000000000000000000000000000000000000000000000081526004018080602001828103825260098152602001807f4e6f7420466f756e64000000000000000000000000000000000000000000000081525060200191505060405180910390fd5b611201613ecb565b600e60008781526020019081526020016000206040518060a00160405290816000820160009054906101000a900473ffffffffffffffffffffffffffffffffffffffff1673ffffffffffffffffffffffffffffffffffffffff1673ffffffffffffffffffffffffffffffffffffffff16815260200160018201548152602001600282018054600181600116156101000203166002900480601f0160208091040260200160405190810160405280929190818152602001828054600181600116156101000203166002900480156113185780601f106112ed57610100808354040283529160200191611318565b820191906000526020600020905b8154815290600101906020018083116112fb57829003601f168201915b505050505081526020016003820160009054906101000a900460ff161515151581526020016004820154815250509050611350613f12565b60106000888152602001908152602001600020604051806040016040529081600082015481526020016001820160009054906101000a900473ffffffffffffffffffffffffffffffffffffffff1673ffffffffffffffffffffffffffffffffffffffff1673ffffffffffffffffffffffffffffffffffffffff1681525050905086826020015183604001518360000151819150955095509550955050509193509193565b6114056113ff612b77565b82612c4d565b61145a576040517f08c379a00000000000000000000000000000000000000000000000000000000081526004018080602001828103825260318152602001806142b06031913960400191505060405180910390fd5b611465838383612d41565b505050565b600f602052816000526040600020602052806000526040600020600091509150505481565b60003373ffffffffffffffffffffffffffffffffffffffff16600e600084815260200190815260200160002060000160009054906101000a900473ffffffffffffffffffffffffffffffffffffffff1673ffffffffffffffffffffffffffffffffffffffff16141561150057600080fd5b60011515600d60009054906101000a900460ff1615151461152057600080fd5b60011515601160009054906101000a900460ff1615151461154057600080fd5b60008060006010600086815260200190815260200160002090508060010160009054906101000a900473ffffffffffffffffffffffffffffffffffffffff1673ffffffffffffffffffffffffffffffffffffffff163373ffffffffffffffffffffffffffffffffffffffff161415611655578060010160009054906101000a900473ffffffffffffffffffffffffffffffffffffffff169250600f600086815260200190815260200160002060008260010160009054906101000a900473ffffffffffffffffffffffffffffffffffffffff1673ffffffffffffffffffffffffffffffffffffffff1673ffffffffffffffffffffffffffffffffffffffff1681526020019081526020016000205491506116ac565b339250600f600086815260200190815260200160002060008473ffffffffffffffffffffffffffffffffffffffff1673ffffffffffffffffffffffffffffffffffffffff1681526020019081526020016000205491505b60008214156116ba57600080fd5b81600f600087815260200190815260200160002060008573ffffffffffffffffffffffffffffffffffffffff1673ffffffffffffffffffffffffffffffffffffffff168152602001908152602001600020600082825403925050819055503373ffffffffffffffffffffffffffffffffffffffff166108fc839081150290604051600060405180830381858888f1935050505061175657600080fd5b7f0ec497a8ae5b1ba29c60470ef651def995fac3deebbdcc56c47a4e5f51a4c2bd338484604051808473ffffffffffffffffffffffffffffffffffffffff1673ffffffffffffffffffffffffffffffffffffffff1681526020018373ffffffffffffffffffffffffffffffffffffffff1673ffffffffffffffffffffffffffffffffffffffff168152602001828152602001935050505060405180910390a160019350505050919050565b600061185482600160008673ffffffffffffffffffffffffffffffffffffffff1673ffffffffffffffffffffffffffffffffffffffff168152602001908152602001600020612f8490919063ffffffff16565b905092915050565b600d60009054906101000a900460ff1681565b600b5481565b6118908383836040518060200160405280600081525061275f565b505050565b60106020528060005260406000206000915090508060000154908060010160009054906101000a900473ffffffffffffffffffffffffffffffffffffffff16905082565b6000806118f0836002612f9e90919063ffffffff16565b50905080915050919050565b600061192c82604051806060016040528060298152602001614194602991396002612fcd9092919063ffffffff16565b9050919050565b600083116119a9576040517f08c379a00000000000000000000000000000000000000000000000000000000081526004018080602001828103825260138152602001807fe4bbb7e6a0bce5bf85e9a1bbe5a4a7e4ba8e300000000000000000000000000081525060200191505060405180910390fd5b600c600081548092919060010191905055506040518060a001604052803373ffffffffffffffffffffffffffffffffffffffff16815260200184815260200183815260200160011515815260200182815250600e6000600c54815260200190815260200160002060008201518160000160006101000a81548173ffffffffffffffffffffffffffffffffffffffff021916908373ffffffffffffffffffffffffffffffffffffffff160217905550602082015181600101556040820151816002019080519060200190611a7d929190613f42565b5060608201518160030160006101000a81548160ff02191690831515021790555060808201518160040155905050505050565b606060098054600181600116156101000203166002900480601f016020809104026020016040519081016040528092919081815260200182805460018160011615610100020316600290048015611b485780601f10611b1d57610100808354040283529160200191611b48565b820191906000526020600020905b815481529060010190602001808311611b2b57829003601f168201915b5050505050905090565b60008073ffffffffffffffffffffffffffffffffffffffff168273ffffffffffffffffffffffffffffffffffffffff161415611bd9576040517f08c379a000000000000000000000000000000000000000000000000000000000815260040180806020018281038252602a81526020018061416a602a913960400191505060405180910390fd5b611c20600160008473ffffffffffffffffffffffffffffffffffffffff1673ffffffffffffffffffffffffffffffffffffffff168152602001908152602001600020612fec565b9050919050565b600a60009054906101000a900473ffffffffffffffffffffffffffffffffffffffff1681565b606060078054600181600116156101000203166002900480601f016020809104026020016040519081016040528092919081815260200182805460018160011615610100020316600290048015611ce55780601f10611cba57610100808354040283529160200191611ce5565b820191906000526020600020905b815481529060010190602001808311611cc857829003601f168201915b5050505050905090565b60003373ffffffffffffffffffffffffffffffffffffffff16600e600084815260200190815260200160002060000160009054906101000a900473ffffffffffffffffffffffffffffffffffffffff1673ffffffffffffffffffffffffffffffffffffffff161415611d6057600080fd5b60001515600d60009054906101000a900460ff16151514611d8057600080fd5b6001600d60006101000a81548160ff02191690831515021790555060011515601160009054906101000a900460ff161515141561202757611dbf613ecb565b600e60008481526020019081526020016000206040518060a00160405290816000820160009054906101000a900473ffffffffffffffffffffffffffffffffffffffff1673ffffffffffffffffffffffffffffffffffffffff1673ffffffffffffffffffffffffffffffffffffffff16815260200160018201548152602001600282018054600181600116156101000203166002900480601f016020809104026020016040519081016040528092919081815260200182805460018160011615610100020316600290048015611ed65780601f10611eab57610100808354040283529160200191611ed6565b820191906000526020600020905b815481529060010190602001808311611eb957829003601f168201915b505050505081526020016003820160009054906101000a900460ff1615151515815260200160048201548152505090506000601060008581526020019081526020016000209050600b60008154809291906001019190505550611f3b33600b54613001565b611f4b600b54836040015161301f565b6000816000015411611f5c57600080fd5b8060000154600f600086815260200190815260200160002060008360010160009054906101000a900473ffffffffffffffffffffffffffffffffffffffff1673ffffffffffffffffffffffffffffffffffffffff1673ffffffffffffffffffffffffffffffffffffffff168152602001908152602001600020600082825403925050819055503373ffffffffffffffffffffffffffffffffffffffff166108fc82600001549081150290604051600060405180830381858888f1935050505061202457600080fd5b50505b7f462b6ca7f632601af1295aeb320851f50e8e630a309173f23535845ea4bfb3b960405160405180910390a160019050919050565b60003373ffffffffffffffffffffffffffffffffffffffff16600e600084815260200190815260200160002060000160009054906101000a900473ffffffffffffffffffffffffffffffffffffffff1673ffffffffffffffffffffffffffffffffffffffff1614156120cd57600080fd5b60001515600d60009054906101000a900460ff161515146120ed57600080fd5b600e600083815260200190815260200160002060010154341161210f57600080fd5b600060106000848152602001908152602001600020905061212e613ecb565b600e60008581526020019081526020016000206040518060a00160405290816000820160009054906101000a900473ffffffffffffffffffffffffffffffffffffffff1673ffffffffffffffffffffffffffffffffffffffff1673ffffffffffffffffffffffffffffffffffffffff16815260200160018201548152602001600282018054600181600116156101000203166002900480601f0160208091040260200160405190810160405280929190818152602001828054600181600116156101000203166002900480156122455780601f1061221a57610100808354040283529160200191612245565b820191906000526020600020905b81548152906001019060200180831161222857829003601f168201915b505050505081526020016003820160009054906101000a900460ff1615151515815260200160048201548152505090506001601160006101000a81548160ff021916908315150217905550600034600f600087815260200190815260200160002060003373ffffffffffffffffffffffffffffffffffffffff1673ffffffffffffffffffffffffffffffffffffffff16815260200190815260200160002054019050826000015481116122f757600080fd5b6000600f600087815260200190815260200160002060008560010160009054906101000a900473ffffffffffffffffffffffffffffffffffffffff1673ffffffffffffffffffffffffffffffffffffffff1673ffffffffffffffffffffffffffffffffffffffff1681526020019081526020016000205490508082116123a85780836080015183011115612393578084600001819055506123a3565b8260800151820184600001819055505b6124c3565b8360010160009054906101000a900473ffffffffffffffffffffffffffffffffffffffff1673ffffffffffffffffffffffffffffffffffffffff163373ffffffffffffffffffffffffffffffffffffffff16146124bf57338460010160006101000a81548173ffffffffffffffffffffffffffffffffffffffff021916908373ffffffffffffffffffffffffffffffffffffffff160217905550808360800151830111156124ae5760001515601160019054906101000a900460ff161515141561247a578084600001819055506124a9565b826080015183602001510184600001819055506001601160016101000a81548160ff0219169083151502179055505b6124be565b8260800151820184600001819055505b5b8190505b7ff152f4ff5e488c55370a2d53925a55055228ebd8ec95bd0251bbb299e48786b033838660010160009054906101000a900473ffffffffffffffffffffffffffffffffffffffff16848860000154604051808673ffffffffffffffffffffffffffffffffffffffff1673ffffffffffffffffffffffffffffffffffffffff1681526020018581526020018473ffffffffffffffffffffffffffffffffffffffff1673ffffffffffffffffffffffffffffffffffffffff1681526020018381526020018281526020019550505050505060405180910390a16001945050505050919050565b6125af612b77565b73ffffffffffffffffffffffffffffffffffffffff168273ffffffffffffffffffffffffffffffffffffffff161415612650576040517f08c379a00000000000000000000000000000000000000000000000000000000081526004018080602001828103825260198152602001807f4552433732313a20617070726f766520746f2063616c6c65720000000000000081525060200191505060405180910390fd5b806005600061265d612b77565b73ffffffffffffffffffffffffffffffffffffffff1673ffffffffffffffffffffffffffffffffffffffff16815260200190815260200160002060008473ffffffffffffffffffffffffffffffffffffffff1673ffffffffffffffffffffffffffffffffffffffff16815260200190815260200160002060006101000a81548160ff0219169083151502179055508173ffffffffffffffffffffffffffffffffffffffff1661270a612b77565b73ffffffffffffffffffffffffffffffffffffffff167f17307eab39ab6107e8899845ad3d59bd9653f200f220920489ca2b5937696c3183604051808215151515815260200191505060405180910390a35050565b61277061276a612b77565b83612c4d565b6127c5576040517f08c379a00000000000000000000000000000000000000000000000000000000081526004018080602001828103825260318152602001806142b06031913960400191505060405180910390fd5b6127d1848484846130a9565b50505050565b600c5481565b60606127e882612b5a565b61283d576040517f08c379a000000000000000000000000000000000000000000000000000000000815260040180806020018281038252602f815260200180614260602f913960400191505060405180910390fd5b6060600860008481526020019081526020016000208054600181600116156101000203166002900480601f0160208091040260200160405190810160405280929190818152602001828054600181600116156101000203166002900480156128e65780601f106128bb576101008083540402835291602001916128e6565b820191906000526020600020905b8154815290600101906020018083116128c957829003601f168201915b505050505090506000600980546001816001161561010002031660029004905014156129155780915050612ac1565b6000815111156129ee5760098160405160200180838054600181600116156101000203166002900480156129805780601f1061295e576101008083540402835291820191612980565b820191906000526020600020905b81548152906001019060200180831161296c575b505082805190602001908083835b602083106129b1578051825260208201915060208101905060208303925061298e565b6001836020036101000a03801982511681845116808217855250505050505090500192505050604051602081830303815290604052915050612ac1565b60096129f98461311b565b6040516020018083805460018160011615610100020316600290048015612a575780601f10612a35576101008083540402835291820191612a57565b820191906000526020600020905b815481529060010190602001808311612a43575b505082805190602001908083835b60208310612a885780518252602082019150602081019050602083039250612a65565b6001836020036101000a038019825116818451168082178552505050505050905001925050506040516020818303038152906040529150505b919050565b6000600560008473ffffffffffffffffffffffffffffffffffffffff1673ffffffffffffffffffffffffffffffffffffffff16815260200190815260200160002060008373ffffffffffffffffffffffffffffffffffffffff1673ffffffffffffffffffffffffffffffffffffffff16815260200190815260200160002060009054906101000a900460ff16905092915050565b6000612b7082600261324b90919063ffffffff16565b9050919050565b600033905090565b816004600083815260200190815260200160002060006101000a81548173ffffffffffffffffffffffffffffffffffffffff021916908373ffffffffffffffffffffffffffffffffffffffff160217905550808273ffffffffffffffffffffffffffffffffffffffff16612bf2836118fc565b73ffffffffffffffffffffffffffffffffffffffff167f8c5be1e5ebec7d5bd14f71427d1e84f3dd0314c0f7b2291e5b200ac8c7c3b92560405160405180910390a45050565b6000612c4682600001613265565b9050919050565b6000612c5882612b5a565b612cad576040517f08c379a000000000000000000000000000000000000000000000000000000000815260040180806020018281038252602c815260200180614106602c913960400191505060405180910390fd5b6000612cb8836118fc565b90508073ffffffffffffffffffffffffffffffffffffffff168473ffffffffffffffffffffffffffffffffffffffff161480612d2757508373ffffffffffffffffffffffffffffffffffffffff16612d0f84610f6c565b73ffffffffffffffffffffffffffffffffffffffff16145b80612d385750612d378185612ac6565b5b91505092915050565b8273ffffffffffffffffffffffffffffffffffffffff16612d61826118fc565b73ffffffffffffffffffffffffffffffffffffffff1614612dcd576040517f08c379a00000000000000000000000000000000000000000000000000000000081526004018080602001828103825260298152602001806142376029913960400191505060405180910390fd5b600073ffffffffffffffffffffffffffffffffffffffff168273ffffffffffffffffffffffffffffffffffffffff161415612e53576040517f08c379a00000000000000000000000000000000000000000000000000000000081526004018080602001828103825260248152602001806140bc6024913960400191505060405180910390fd5b612e5e838383613276565b612e69600082612b7f565b612eba81600160008673ffffffffffffffffffffffffffffffffffffffff1673ffffffffffffffffffffffffffffffffffffffff16815260200190815260200160002061327b90919063ffffffff16565b50612f0c81600160008573ffffffffffffffffffffffffffffffffffffffff1673ffffffffffffffffffffffffffffffffffffffff16815260200190815260200160002061329590919063ffffffff16565b50612f23818360026132af9092919063ffffffff16565b50808273ffffffffffffffffffffffffffffffffffffffff168473ffffffffffffffffffffffffffffffffffffffff167fddf252ad1be2c89b69c2b068fc378daa952ba7f163c4a11628f55a4df523b3ef60405160405180910390a4505050565b6000612f9383600001836132e4565b60001c905092915050565b600080600080612fb18660000186613367565b915091508160001c8160001c8090509350935050509250929050565b6000612fe0846000018460001b84613400565b60001c90509392505050565b6000612ffa826000016134f6565b9050919050565b61301b828260405180602001604052806000815250613507565b5050565b61302882612b5a565b61307d576040517f08c379a000000000000000000000000000000000000000000000000000000000815260040180806020018281038252602c81526020018061420b602c913960400191505060405180910390fd5b806008600084815260200190815260200160002090805190602001906130a4929190613fc2565b505050565b6130b4848484612d41565b6130c084848484613578565b613115576040517f08c379a000000000000000000000000000000000000000000000000000000000815260040180806020018281038252603281526020018061408a6032913960400191505060405180910390fd5b50505050565b60606000821415613163576040518060400160405280600181526020017f30000000000000000000000000000000000000000000000000000000000000008152509050613246565b600082905060005b6000821461318d578080600101915050600a828161318557fe5b04915061316b565b6060816040519080825280601f01601f1916602001820160405280156131c25781602001600182028036833780820191505090505b50905060006001830390508593505b6000841461323e57600a84816131e357fe5b0660300160f81b828280600190039350815181106131fd57fe5b60200101907effffffffffffffffffffffffffffffffffffffffffffffffffffffffffffff1916908160001a905350600a848161323657fe5b0493506131d1565b819450505050505b919050565b600061325d836000018360001b6137bd565b905092915050565b600081600001805490509050919050565b505050565b600061328d836000018360001b6137e0565b905092915050565b60006132a7836000018360001b6138c8565b905092915050565b60006132db846000018460001b8473ffffffffffffffffffffffffffffffffffffffff1660001b613938565b90509392505050565b600081836000018054905011613345576040517f08c379a00000000000000000000000000000000000000000000000000000000081526004018080602001828103825260228152602001806140686022913960400191505060405180910390fd5b82600001828154811061335457fe5b9060005260206000200154905092915050565b600080828460000180549050116133c9576040517f08c379a00000000000000000000000000000000000000000000000000000000081526004018080602001828103825260228152602001806141bd6022913960400191505060405180910390fd5b60008460000184815481106133da57fe5b906000526020600020906002020190508060000154816001015492509250509250929050565b600080846001016000858152602001908152602001600020549050600081141583906134c7576040517f08c379a00000000000000000000000000000000000000000000000000000000081526004018080602001828103825283818151815260200191508051906020019080838360005b8381101561348c578082015181840152602081019050613471565b50505050905090810190601f1680156134b95780820380516001836020036101000a031916815260200191505b509250505060405180910390fd5b508460000160018203815481106134da57fe5b9060005260206000209060020201600101549150509392505050565b600081600001805490509050919050565b6135118383613a14565b61351e6000848484613578565b613573576040517f08c379a000000000000000000000000000000000000000000000000000000000815260040180806020018281038252603281526020018061408a6032913960400191505060405180910390fd5b505050565b60006135998473ffffffffffffffffffffffffffffffffffffffff16613c08565b6135a657600190506137b5565b606061373c63150b7a0260e01b6135bb612b77565b888787604051602401808573ffffffffffffffffffffffffffffffffffffffff1673ffffffffffffffffffffffffffffffffffffffff1681526020018473ffffffffffffffffffffffffffffffffffffffff1673ffffffffffffffffffffffffffffffffffffffff16815260200183815260200180602001828103825283818151815260200191508051906020019080838360005b8381101561366b578082015181840152602081019050613650565b50505050905090810190601f1680156136985780820380516001836020036101000a031916815260200191505b5095505050505050604051602081830303815290604052907bffffffffffffffffffffffffffffffffffffffffffffffffffffffff19166020820180517bffffffffffffffffffffffffffffffffffffffffffffffffffffffff838183161783525050505060405180606001604052806032815260200161408a603291398773ffffffffffffffffffffffffffffffffffffffff16613c1b9092919063ffffffff16565b9050600081806020019051602081101561375557600080fd5b8101908080519060200190929190505050905063150b7a0260e01b7bffffffffffffffffffffffffffffffffffffffffffffffffffffffff1916817bffffffffffffffffffffffffffffffffffffffffffffffffffffffff191614925050505b949350505050565b600080836001016000848152602001908152602001600020541415905092915050565b600080836001016000848152602001908152602001600020549050600081146138bc576000600182039050600060018660000180549050039050600086600001828154811061382b57fe5b906000526020600020015490508087600001848154811061384857fe5b906000526020600020018190555060018301876001016000838152602001908152602001600020819055508660000180548061388057fe5b600190038181906000526020600020016000905590558660010160008781526020019081526020016000206000905560019450505050506138c2565b60009150505b92915050565b60006138d48383613c33565b61392d578260000182908060018154018082558091505060019003906000526020600020016000909190919091505582600001805490508360010160008481526020019081526020016000208190555060019050613932565b600090505b92915050565b60008084600101600085815260200190815260200160002054905060008114156139df57846000016040518060400160405280868152602001858152509080600181540180825580915050600190039060005260206000209060020201600090919091909150600082015181600001556020820151816001015550508460000180549050856001016000868152602001908152602001600020819055506001915050613a0d565b828560000160018303815481106139f257fe5b90600052602060002090600202016001018190555060009150505b9392505050565b600073ffffffffffffffffffffffffffffffffffffffff168273ffffffffffffffffffffffffffffffffffffffff161415613ab7576040517f08c379a00000000000000000000000000000000000000000000000000000000081526004018080602001828103825260208152602001807f4552433732313a206d696e7420746f20746865207a65726f206164647265737381525060200191505060405180910390fd5b613ac081612b5a565b15613b33576040517f08c379a000000000000000000000000000000000000000000000000000000000815260040180806020018281038252601c8152602001807f4552433732313a20746f6b656e20616c7265616479206d696e7465640000000081525060200191505060405180910390fd5b613b3f60008383613276565b613b9081600160008573ffffffffffffffffffffffffffffffffffffffff1673ffffffffffffffffffffffffffffffffffffffff16815260200190815260200160002061329590919063ffffffff16565b50613ba7818360026132af9092919063ffffffff16565b50808273ffffffffffffffffffffffffffffffffffffffff16600073ffffffffffffffffffffffffffffffffffffffff167fddf252ad1be2c89b69c2b068fc378daa952ba7f163c4a11628f55a4df523b3ef60405160405180910390a45050565b600080823b905060008111915050919050565b6060613c2a8484600085613c56565b90509392505050565b600080836001016000848152602001908152602001600020541415905092915050565b606082471015613cb1576040517f08c379a00000000000000000000000000000000000000000000000000000000081526004018080602001828103825260268152602001806140e06026913960400191505060405180910390fd5b613cba85613c08565b613d2c576040517f08c379a000000000000000000000000000000000000000000000000000000000815260040180806020018281038252601d8152602001807f416464726573733a2063616c6c20746f206e6f6e2d636f6e747261637400000081525060200191505060405180910390fd5b600060608673ffffffffffffffffffffffffffffffffffffffff1685876040518082805190602001908083835b60208310613d7c5780518252602082019150602081019050602083039250613d59565b6001836020036101000a03801982511681845116808217855250505050505090500191505060006040518083038185875af1925050503d8060008114613dde576040519150601f19603f3d011682016040523d82523d6000602084013e613de3565b606091505b5091509150613df3828286613dff565b92505050949350505050565b60608315613e0f57829050613ec4565b600083511115613e225782518084602001fd5b816040517f08c379a00000000000000000000000000000000000000000000000000000000081526004018080602001828103825283818151815260200191508051906020019080838360005b83811015613e89578082015181840152602081019050613e6e565b50505050905090810190601f168015613eb65780820380516001836020036101000a031916815260200191505b509250505060405180910390fd5b9392505050565b6040518060a00160405280600073ffffffffffffffffffffffffffffffffffffffff1681526020016000815260200160608152602001600015158152602001600081525090565b604051806040016040528060008152602001600073ffffffffffffffffffffffffffffffffffffffff1681525090565b828054600181600116156101000203166002900490600052602060002090601f016020900481019282601f10613f8357805160ff1916838001178555613fb1565b82800160010185558215613fb1579182015b82811115613fb0578251825591602001919060010190613f95565b5b509050613fbe9190614042565b5090565b828054600181600116156101000203166002900490600052602060002090601f016020900481019282601f1061400357805160ff1916838001178555614031565b82800160010185558215614031579182015b82811115614030578251825591602001919060010190614015565b5b50905061403e9190614042565b5090565b61406491905b80821115614060576000816000905550600101614048565b5090565b9056fe456e756d657261626c655365743a20696e646578206f7574206f6620626f756e64734552433732313a207472616e7366657220746f206e6f6e20455243373231526563656976657220696d706c656d656e7465724552433732313a207472616e7366657220746f20746865207a65726f2061646472657373416464726573733a20696e73756666696369656e742062616c616e636520666f722063616c6c4552433732313a206f70657261746f7220717565727920666f72206e6f6e6578697374656e7420746f6b656e4552433732313a20617070726f76652063616c6c6572206973206e6f74206f776e6572206e6f7220617070726f76656420666f7220616c6c4552433732313a2062616c616e636520717565727920666f7220746865207a65726f20616464726573734552433732313a206f776e657220717565727920666f72206e6f6e6578697374656e7420746f6b656e456e756d657261626c654d61703a20696e646578206f7574206f6620626f756e64734552433732313a20617070726f76656420717565727920666f72206e6f6e6578697374656e7420746f6b656e4552433732314d657461646174613a2055524920736574206f66206e6f6e6578697374656e7420746f6b656e4552433732313a207472616e73666572206f6620746f6b656e2074686174206973206e6f74206f776e4552433732314d657461646174613a2055524920717565727920666f72206e6f6e6578697374656e7420746f6b656e4552433732313a20617070726f76616c20746f2063757272656e74206f776e65724552433732313a207472616e736665722063616c6c6572206973206e6f74206f776e6572206e6f7220617070726f766564a26469706673582212209ef4ddfcd45e40ee42d867e7da59d567a8a4d53cabc9f38a640cfa1e902c668064736f6c63430006030033",
  "source": "pragma solidity >=0.4.21 <0.8.0;\n\nimport \"@openzeppelin/contracts/token/ERC721/ERC721.sol\";\nimport \"@openzeppelin/contracts/math/SafeMath.sol\";\n\ncontract ArtAuction is ERC721{\n    using SafeMath for uint256;\n\n    struct ArtItem{\n        address payable seller;\n        uint256 minbid;\n        string tokenURI;\n        bool exists;\n        uint bidIncrement;\n    }\n    struct bidding{\n        uint highestBidingBid;\n        address payable highestBidder;\n    }\n\n    address public owner;\n    uint256 public _tokenIDs;\n    uint256 public _artItemIDs;\n    bool public canceled;\n    mapping(uint256=>ArtItem)private _artItems;\n    mapping(uint256=>mapping(address => uint256)) public fundsByBidder;\n    mapping(uint256=>bidding)public bid;\n    bool auctionStarted=false;\n    bool firstBid =false;\n\n    event LogBid(address bidder,uint bid,address highestBidder,uint highestBid,uint highestBidingBid);\n    event LogWithdrawal(address withdrawer,address withdrawalAccount,uint amount);\n    event LogCanceled();\n\n    constructor()public ERC721(\"DART\",\"ART\"){\n        owner=msg.sender;\n    }\n\n    function addArtItem(uint256 price,string memory tokenURI,uint _bidincrement)public{\n        require(price>0,\"0\");\n        _artItemIDs++;\n        _artItems[_artItemIDs]=ArtItem(msg.sender,price,tokenURI,true,_bidincrement);\n    }\n\n    function getArtItem(uint256 id)public view returns(uint256,uint256,string memory,uint256){\n        require(_artItems[id].exists,\"Not Found\");\n        ArtItem memory artitem=_artItems[id];\n        bidding memory bids=bid[id];\n        return (id,artitem.minbid,artitem.tokenURI,bids.highestBidingBid);\n    }\n\n    function cancelAuction(uint256 id)public payable returns(bool success){\n        require(_artItems[id].seller!=msg.sender);\n        require(canceled==false);\n        canceled=true;\n        if(auctionStarted==true){\n            ArtItem memory artitme = _artItems[id];\n            bidding storage bids =bid[id];\n            _tokenIDs++;\n            _safeMint(msg.sender,_tokenIDs);\n            _setTokenURI(_tokenIDs,artitme.tokenURI);\n\n            require(bids.highestBidingBid>0);\n            fundsByBidder[id][bids.highestBidder]-=bids.highestBidingBid;\n            require(msg.sender.send(bids.highestBidingBid));\n        }\n        LogCanceled();\n        return true;\n    }\n    function placeBid(uint256 id)public payable returns(bool success){\n        require(_artItems[id].seller!=msg.sender);\n        require(canceled==false);\n        require(msg.value>_artItems[id].minbid);\n        bidding storage bids=bid[id];\n        ArtItem memory artitem=_artItems[id];\n        auctionStarted=true;\n\n        uint newBid=fundsByBidder[id][msg.sender]+msg.value;\n        require(newBid>bids.highestBidingBid);\n\n        uint highestBid=fundsByBidder[id][bids.highestBidder];\n        if(newBid<=highestBid){\n            if(newBid+artitem.bidIncrement>highestBid){\n                bids.highestBidingBid=highestBid;\n            }\n            else{\n                bids.highestBidingBid=newBid+artitem.bidIncrement;\n            }\n        }\n        else{\n            if(msg.sender!=bids.highestBidder){\n                bids.highestBidder=msg.sender;\n                if(newBid+artitem.bidIncrement>highestBid){\n                    if(firstBid==false){\n                        bids.highestBidingBid=highestBid;\n                    }\n                    else{\n                        bids.highestBidingBid=artitem.minbid+artitem.bidIncrement;\n                        firstBid=true;\n                    }\n                }\n                else{\n                    bids.highestBidingBid=newBid+artitem.bidIncrement;\n                }\n            }\n            highestBid=newBid;\n        }\n        LogBid(msg.sender, newBid, bids.highestBidder,highestBid, bids.highestBidingBid);\n        return true;\n    }\n\n    function withdraw(uint256 id)public payable returns(bool success){\n        require(_artItems[id].seller!=msg.sender);\n        require(canceled==true);\n        require(auctionStarted==true);\n        address payable withdrawalAccount;\n        uint withdrawalAmount;\n        bidding storage bids=bid[id];\n        if(msg.sender==bids.highestBidder){\n            withdrawalAccount=bids.highestBidder;\n            withdrawalAmount=fundsByBidder[id][bids.highestBidder];\n        }\n        else{\n            withdrawalAccount=msg.sender;\n            withdrawalAmount=fundsByBidder[id][withdrawalAccount];\n        }\n        \n        require(withdrawalAmount!=0);\n        fundsByBidder[id][withdrawalAccount] -= withdrawalAmount;\n        require(msg.sender.send(withdrawalAmount));\n        LogWithdrawal(msg.sender, withdrawalAccount, withdrawalAmount);\n        return true;\n    }\n\n}",
  "sourcePath": "E:\\NFT-Auction-Marketplace-master\\src\\contracts\\ArtAuction.sol",
  "compiler": {
    "name": "solc",
    "version": "0.6.3+commit.8dda9521.Emscripten.clang"
  },
  "schemaVersion": "3.4.3",
  "updatedAt": "2021-11-03T11:53:51.307Z",
  "devdoc": {
    "methods": {
      "approve(address,uint256)": {
        "details": "See {IERC721-approve}."
      },
      "balanceOf(address)": {
        "details": "See {IERC721-balanceOf}."
      },
      "baseURI()": {
        "details": "Returns the base URI set via {_setBaseURI}. This will be automatically added as a prefix in {tokenURI} to each token's URI, or to the token ID if no specific URI is set for that token ID."
      },
      "getApproved(uint256)": {
        "details": "See {IERC721-getApproved}."
      },
      "isApprovedForAll(address,address)": {
        "details": "See {IERC721-isApprovedForAll}."
      },
      "name()": {
        "details": "See {IERC721Metadata-name}."
      },
      "ownerOf(uint256)": {
        "details": "See {IERC721-ownerOf}."
      },
      "safeTransferFrom(address,address,uint256)": {
        "details": "See {IERC721-safeTransferFrom}."
      },
      "safeTransferFrom(address,address,uint256,bytes)": {
        "details": "See {IERC721-safeTransferFrom}."
      },
      "setApprovalForAll(address,bool)": {
        "details": "See {IERC721-setApprovalForAll}."
      },
      "supportsInterface(bytes4)": {
        "details": "See {IERC165-supportsInterface}.     * Time complexity O(1), guaranteed to always use less than 30 000 gas."
      },
      "symbol()": {
        "details": "See {IERC721Metadata-symbol}."
      },
      "tokenByIndex(uint256)": {
        "details": "See {IERC721Enumerable-tokenByIndex}."
      },
      "tokenOfOwnerByIndex(address,uint256)": {
        "details": "See {IERC721Enumerable-tokenOfOwnerByIndex}."
      },
      "tokenURI(uint256)": {
        "details": "See {IERC721Metadata-tokenURI}."
      },
      "totalSupply()": {
        "details": "See {IERC721Enumerable-totalSupply}."
      },
      "transferFrom(address,address,uint256)": {
        "details": "See {IERC721-transferFrom}."
      }
    }
  },
  "userdoc": {
    "methods": {}
  }
}